:10000000A9EF07F068961200046ED8CF05F0E0CF94
:1000100006F00001E9CF0CF0EACF07F0E1CF08F0DD
:10002000E2CF09F0D9CF0AF0DACF0BF0F3CF12F01C
:10003000F4CF13F0FACF14F000C00EF001C00FF0AF
:1000400002C010F003C011F0F2AA2AEF00F0F2B4DF
:10005000FDEF06F09DA030EF00F09EB001EF07F03D
:10006000A0AA36EF00F0A1BAC4EF06F00EC000F06F
:100070000FC001F010C002F011C003F00CC0E9FF86
:1000800007C0EAFF078E08C0E1FF09C0E2FF0AC00F
:10009000D9FF0BC0DAFF12C0F3FF13C0F4FF14C086
:1000A000FAFF045006C0E0FF05C0D8FF1000F76A51
:1000B000BE0FF66E000EF7220900F5501200000385
:1000C000FFFFFFFFFFFFFFFFFFFFFFFFFFFFF76ADD
:1000D000DE0FF66E000EF7220900F5501200400008
:1000E00014000000000000000000000000000000FC
:1000F0000000000000000000000000000000F76A9F
:100100000E0FF66E010EF7220900F55012004000A6
:1001100008000000000000000000000000000000D7
:100120000000000000000000000000000000F76A6E
:100130003E0FF66E010EF7220900F5501200050180
:100140000904A10105010901A100093009311500C7
:1001500026FF03751095028102C005020901A10066
:1001600009BB09BA150026FF03751095028102C06C
:1001700005010901A10009330934150026FF0375A3
:100180001095028102C005010901A1000936093755
:10019000150026FF03751095028102C0050919019B
:1001A0002920150025017501952055006500810263
:1001B000C000F76AC20FF66E010EF7220900F55073
:1001C00012000000F76AD40FF66E010EF722090044
:1001D000F550120073000000F76AE80FF66E010E8A
:1001E000F7220900F550120009022900010100C0A0
:1001F000320904000002030000000921000100018F
:100200002273000705810314000A07050103080093
:100210000A00F76A220FF66E020EF7220900F55067
:1002200012000100F76A340FF66E020EF722090081
:10023000F55012001200F76A460FF66E020EF72212
:100240000900F55012001201100100000040610485
:100250005700000101020001F76A680FF66E020EF6
:10026000F7220900F550120000040C00F76A7C0F19
:10027000F66E020EF7220900F5501200040309047D
:10028000080355005300420032034F005900450057
:10029000200043004800550059002000470041005D
:1002A0004D00450052002000500052004F00200039
:1002B000500041005000550020006D92699468A4E0
:1002C00002D06894FCD7D0EF06F0400E0401016F15
:1002D000040E036F100E026F880E006F046B040E85
:1002E000076F500E066F0001120070A002D0EDDF04
:1002F0007090689AD7EF06F06A6A6892DCEF06F0B1
:100300009C919BBF9C819B9F9B51100803E2000E18
:10031000016E20D09CA110D0036A9B51F2CF9DF0BA
:10032000F29EC5DE9DBFF28EFF0802E1000E01D0F5
:10033000010E016E0FD00ED0036A9B51F2CF9DF0DB
:10034000F29EB5DE9DBFF28EFF0802E1000E01D0E5
:10035000010E016E1200036A9A51700FE96E0F0EC2
:100360000320EA6EEF6A9AC09BF0CADF015218E0E0
:100370009A51080DF3509C6BE96E040E9C25EA6EB1
:10038000EF6A9A51080DF3509C6B9B6F040E9B27EC
:10039000000E9C239BC0E9FF040E9C25EA6EEF6AC9
:1003A0001200010E996F99510F0805E399C09AF058
:1003B000D2DF992BF8D71200226A216A8F6B8F53F4
:1003C0000AE1036A8F51230FE96E000E0320EA6EE3
:1003D000EF6A8F2BF4D7186A010E196E176A120094
:1003E0006A6A686A9F0E6B6E3D0E696E6E6AD9DF2F
:1003F000E3DF160E706E68A602D004DEFCD76D989F
:1004000064DF030E1C6EE1EF06F0698468986D826C
:10041000E6EF06F0689CEBEF06F094C01DF01200CA
:100420001D681200926B2150221046E092513F0845
:1004300043E31A50FC0F2EE2040F67EF02F020C0D6
:1004400003F01F50F2CF94F0F29EC6DE94BFF28EFE
:10045000936F20D020C003F01F50F2CF94F0F29E93
:1004600066DE94BFF28E936F15D020C003F01F504C
:10047000F2CF94F0F29EFADE94BFF28E936F0AD020
:1004800020C003F01F50F2CF94F0F29ED4DE94BF50
:10049000F28E936F1F2AD8B4202A2150D8B4220696
:1004A00021069251922B036A500FE96E040E03202D
:1004B000EA6E93C0EFFFB7D72150221004E19251AA
:1004C000400801E0176A92C094F0A7DF1200E82408
:1004D000F76AF736E90FF66E040EF7220A00F550B8
:1004E000FA6E0800F550F96E3E0454046A04800464
:1004F000206A1F6A1A6A04011351010A000109E007
:10050000030A0DE0010A0FE0220A2BE0030A4FE084
:100510007AD0226A120E216E030E1A6E76D0226AEB
:10052000290E216E72D0020E1A6E036A0401125156
:10053000F2CF92F0F29E00018FDE92BFF28E036A3C
:100540001F6E03C020F020C003F01F50F2CF92F0C6
:10055000F29E8CDE92BFF28E036A216E03C022F0FF
:1005600054D0D89004011235036AF2CF92F0F29E73
:10057000000158DE0900F5CF03F092BFF28E1F6E26
:1005800003C020F01F3C02D020520FE020C003F037
:100590001F50F2CF92F0F29E1FDE92BFF28E036ADE
:1005A000216E03C022F031D002D03ADF3DD0D89086
:1005B00004011435036AF2CF92F0F29E0001F9DDD6
:1005C0000900F5CF03F092BFF28E1F6E03C020F03A
:1005D0001F3C02D0205215E0010E1A6ED890040183
:1005E0001435036AF2CF92F0F29E0001EBDD0900B0
:1005F000F5CF03F092BFF28E216E03C022F005D03A
:1006000002D00EDF11D00CDF0FD00401175308E128
:10061000225203E12150165D03E2226A16C421F042
:10062000010E176E0001FEDE1200915304E1040E6C
:100630001C6EB7DED1D0050E1C6E040E946F900EAA
:10064000936F010E926F92510F08D8A0C5D092C03F
:100650009AF081DE956B036A9251F2CF99F0F29E87
:1006600026DD99BFF28EFF0859E0040E956FD890F1
:100670009235036AF2CF99F0F29E41DD0900F5CF81
:1006800003F099BFF28E966F03C097F09251080D58
:10069000F3509A6B996F010E9925016E000E9A2105
:1006A000036E01C0E9FF040E0324EA6E96C0EFFF5B
:1006B0009251080DF3509A6B996F020E9925016EB5
:1006C000000E9A21036E01C0E9FF040E0324EA6EB6
:1006D00094C0ECFFED5293C0EFFFD8909235036ABF
:1006E000F2CF99F0F29E0BDD0900F5CF03F099BF30
:1006F000F28E932703509423880E986F97A101D010
:10070000988197A301D098839251080DF3509A6B6A
:10071000E96E040E9A25EA6E98C0EFFF036A9251C3
:10072000F2CF99F0F29EC3DC99BFF28EFF0839E058
:1007300095839251080DF3509A6B996F040E992787
:10074000000E9A23020E9925016E000E9A21036E67
:1007500001C0E9FF040E0324EA6E94C0ECFFED52E1
:1007600093C0EFFFD8909235036AF2CF99F0F29ED2
:10077000AEDC0900F5CF03F099BFF28E932703504A
:1007800094239251080DF3509A6B996F040E992798
:10079000000E9A2399C0E9FF040E9A25EA6E400ED6
:1007A000EF6E9551060802E10E0E956F036A9251A5
:1007B000F2CF99F0F29E7BDC99BFF28E010801E046
:1007C0009589036A9251700FE96E0F0E0320EA6E4D
:1007D00095C0EFFF922B37D73BEF04F00401115186
:1007E000000A00010DE0010A14E0020A1FE0060AF7
:1007F00029E0030A2EE00E0A2EE0010A32E040D082
:1008000019C050F40401516B020E0001946F05DE13
:1008100038D00401122D07D0010E19160001946B77
:10082000FCDD03D004010001FBDD2BD00401122DFF
:1008300006D019820001946BF0DD03D004010001A1
:10084000EFDD1FD0020E176E12C41EF0946BE5DDB3
:1008500018D04EDE16D018C050F4010E946FDDDDB6
:1008600010D004011251010809E312C418F012C497
:1008700091F00001DAD6946BD0DD0401000101D0C3
:10088000CFDD4EEF05F018C091F004011151000AC0
:10089000000107E00A0A0DE0010A2DE00D0A3DE023
:1008A0003ED00401506B516B020E0001946FB5DD18
:1008B00037D091531EE0010E915D036AF2CF92F0A2
:1008C000F29EA7DC92BFF28E016E0401145DD8A0E7
:1008D00002D000010ED0036A1451230FE96E000EFE
:1008E0000320EA6EEFCF50F4010E0001946F95DD06
:1008F00001D096DD15D091530EE0036A0401145126
:10090000230FE96E000E0320EA6E12C4EFFF000110
:10091000946B83DD01D084DD03D0EADD01D080DD7E
:100920004EEF05F0929191BF9281919F92A111D0CB
:100930009151080DF350946B936F040E9327000EA2
:10094000942393C0E9FF040E9425EA6E880EEF6E9F
:1009500009D09151080DF350946BE96E040E942563
:10096000EA6EEF6A14EF05F0929191BF9281919F28
:1009700092A111D09151080DF350946B936F040E16
:100980009327000E942393C0E9FF040E9425EA6E8A
:10099000840EEF6E0AD09151080DF350946BE96EFE
:1009A000040E9425EA6E840EEF6E1AEF05F0929114
:1009B00091BF9281919F92A111D09151080DF35056
:1009C000956B946F040E9427000E952394C0E9FF55
:1009D000040E9525EA6EEFCF93F00AD09151080DE1
:1009E000F350956BE96E040E9525EA6EEFCF93F008
:1009F00093AF02D093B502D0000E01D0010E016E6C
:100A000024EF05F014C49BF07BDC015228E00401C4
:100A10001151010A000105E0020A09E0030A0DE094
:100A20001DD014C491F07ED7946BF7DC18D014C499
:100A300091F09AD7946BF1DC12D00401506B516B9A
:100A400014C491F00001B3D7015204E0010E040177
:100A5000506F0001020E946FE0DC01D0E1DC4EEF3C
:100A600005F0040111510001DBDC4EEF05F0176ABF
:100A7000040110517F0B000A000107E0010A07E0A2
:100A8000030A07E0230A07E008D0A8D607D0FBD660
:100A900005D0B8D703D0E5D701D0C2DC7AEF06F095
:100AA0009151080DF350976BE96E040E9725EA6E8D
:100AB000EFCF93F09251020806E193AD02D0926B12
:100AC00002D0010E926F9251030813E1840E936FCE
:100AD0009151080DF350976B966F040E9627000EF8
:100AE000972396C0E9FF040E9725EA6E840EEF6EF9
:100AF00007D0922D03D0C80E936F02D0880E936F4B
:100B0000D8909135036AF2CF96F0F29E7FEC00F018
:100B10000900F5CF03F096BFF28E946F03C095F0F5
:100B20009151080DF350976B966F010E9625016E4B
:100B3000000E9721036E01C0E9FF040E0324EA6E44
:100B400094C0EFFF95A101D0938195A301D0938329
:100B50009151080DF350976BE96E040E9725EA6EDC
:100B600093C0EFFF1200036A9651700FE96E0F0EEB
:100B70000320EA6EEF5212E09651080DF350986B85
:100B8000976F040E9727000E982397C0E9FF040E75
:100B90009825EA6EEFCF99F099AF02D0000E01D000
:100BA000010E016E120091C096F0DDDF015263E08C
:100BB0009151080DF350976B966F040E9627000E17
:100BC0009723010E9625016E000E9721036E01C03A
:100BD000E9FF040E0324EA6E92C0EFFF945102086D
:100BE00017E19151080DF350976B966F040E9627FD
:100BF000000E972396C0E9FF040E9725EA6EEFCF0B
:100C000095F095AD02D0946B02D0010E946F13D085
:100C10009451040810E19151080DF350976BE96E5F
:100C2000040E9725EA6EEFCF95F095AD03D0010E37
:100C3000946F01D0946B942D03D0C80E956F02D0A1
:100C4000880E956F93A101D0958193A301D09583D0
:100C50009151080DF350976B966F040E9627000E76
:100C6000972396C0E9FF040E9725EA6E95C0EFFF23
:100C7000010E016E02D0000E016E1200915300E1D0
:100C8000120092C06EFF925303E0040E1C6E02D05D
:100C9000020E1C6E51EF06F0186A176A1EC092F021
:100CA000F0D75EEF06F0915309E1172C03D012EC58
:100CB00002F004D017500208D8B4EED712001B304F
:100CC0008F6F8F338F331F0E8F171B5241E104013B
:100CD00000513C0B0001906F430E0401001700010E
:100CE000905134081EE104010451800B01E0046BB3
:100CF0000001BDD66D981D3C05D0916B030E926F1F
:100D0000CFDE0ED0916B020E926FCADE1D50FE0830
:100D100007E0916B936B1DC092F0040E946F43DF5C
:100D200016D09051040813E1916BA8DF916B020E6D
:100D3000926FB6DE1D50FE080AE01D3C01D007D0C0
:100D4000916B936B1DC092F0010E946F2CDF1AD043
:100D50001B5004080EE11D68916BA5DF1D3C01D0FE
:100D600007D0916B936B1DC092F0020E946F1BDF46
:100D700009D01BB404D08FC091F080DF03D08FC0A6
:100D800091F091DFF5EF06F0A19A1C52D8B433D060
:100D90006852D8B430D068A403D069B45DEF01F0D4
:100DA0006DB229D068AA03D069BA75EF01F068A2C4
:100DB00003D069B27CEF01F068A003D069B0F0EF16
:100DC00001F068A803D069B805EF02F068AC03D061
:100DD00069BC0AEF02F08E6B68A608D069A606D03F
:100DE0006CCF1BF002EC00F06AD701D004D08E511A
:100DF0008E2B0308F1E236EF00F05984F29436EFBF
:100E000000F09E9036EF00F0EA6A7E0EE96EEF5039
:100E10000EE00F0E016E006A002EFED7012EFBD7EA
:100E20008F0E006E002EFED70000EF2EF2D71200BC
:100E30006D6A696A080E6F6E94503009946E1C6A70
:100E4000166AF2BE168EF29EDCEC01F016BEF28E31
:100E50002BEF07F0EDD704EF08F0166AF2BE168EFE
:100E6000F29EDCEC01F016BEF28E6D6A140E6F6E0F
:100E7000696A6D86010E1C6E41EF07F06DB601D0F8
:100E8000ECD71C2C0BD06DBA09D0686A696AA08AAD
:100E9000C00EF212110E696E020E1C6E12EF08F0F7
:100EA0001850016E1200FCDF01C039F013EF08F09A
:100EB000166AF2BE168EF29E7DC096F054DE16BE05
:100EC000F28E015242E07D51080DF350866B856F22
:100ED000040E8527000E8623020E8525016E000E66
:100EE0008621036E01C0E9FF040E0324EA6EECCFF5
:100EF00084F0ED52EFCF83F084C0EAFF83C0E9FFB6
:100F00007FC0E2FF7EC0E1FF81C002F080C001F03F
:100F1000015202E0022A02D0025206E0E6CFEEFFC2
:100F2000012EFCD7022EFAD7166AF2BE168EF29E5A
:100F30007DC091F081C093F080C092F082C094F0A7
:100F400032DE16BEF28E015002D0000E016E64EF4A
:100F500009F0F86AD09E078E300E586E599059925B
:100F600059945B6A5C6A5D6A5E6A5F6A606B616B1A
:100F7000626B646B636B666B656B686B676B6A6BEC
:100F8000696B6C6B6B6B6E6B6D6B706B6F6B726B9D
:100F9000716B736B746B756B766BC150C00B0F0903
:100FA000C16E070EB46E426A436A446A456A466A75
:100FB000476A486A496A4A6A4B6A4C6A4D6A4E6A8D
:100FC0004F6A506A516A526A536A546A556A566A3D
:100FD000576AEF0E926EFF0E936E370E946EF18E7F
:100FE000C150C00B0409C16EC050C00B0709C06ED0
:100FF000C08EC280C60ED56E020E7D6FFA0E7E6F59
:1010000003DF7D2FFBD726D79D909D98F28AC00ED7
:10101000F212040E016EC250C30B0110C26E7B6B44
:101020007C6B2CD740D759A4C8D05994000E016EC0
:10103000C250C30B0110C26E8B9E8B9C8988130E0D
:10104000006E002EFED700D081CF7BF082CF7CF0E7
:1010500089988B9E8B8CF10E7B177C51070B006E51
:10106000D89000347C6F7B517C11736F81CF7BF003
:1010700082CF7CF089988B9C8B8EF10E7B177C51F4
:10108000070B006ED89000347C6F7B517C11746F1D
:1010900081CF7BF082CF7CF0F10E7B177C51070B68
:1010A000006ED89000347C6F7B517C11756FC282CA
:1010B000C2B2FED7C3CF63F0C4CF64F0040E016E9A
:1010C000C250C30B0110C26E270E006E002EFED759
:1010D00000D0C282C2B2FED7C3CF65F0C4CF66F0E3
:1010E000080E016EC250C30B0110C26E270E006EB7
:1010F000002EFED700D0C282C2B2FED7C3CF67F0A7
:10110000C4CF68F00C0E016EC250C30B0110C26E4A
:10111000270E006E002EFED700D0C282C2B2FED7CC
:10112000C3CF69F0C4CF6AF0100E016EC250C30B7A
:101130000110C26E270E006E002EFED700D0C282B4
:10114000C2B2FED7C3CF6BF0C4CF6CF0240E016ED9
:10115000C250C30B0110C26E270E006E002EFED7C8
:1011600000D0C282C2B2FED7C3CF6DF0C4CF6EF042
:10117000200E016EC250C30B0110C26E270E006E0E
:10118000002EFED700D0C282C2B2FED7C3CF6FF00E
:10119000C4CF70F0280E016EC250C30B0110C26E96
:1011A000270E006E002EFED700D0C282C2B2FED73C
:1011B000C3CF71F0C4CF72F0598072DE0152D8B43F
:1011C00087D059A085D0036A630EE96E03C0EAFF99
:1011D000EFCF24F0036A640EE96E03C0EAFFEFCF9D
:1011E00025F0036A650EE96E03C0EAFFEFCF26F033
:1011F000036A660EE96E03C0EAFFEFCF27F0036AC9
:10120000670EE96E03C0EAFFEFCF28F0036A680EAD
:10121000E96E03C0EAFFEFCF29F0036A690EE96EB9
:1012200003C0EAFFEFCF2AF0036A6A0EE96E03C03B
:10123000EAFFEFCF2BF0036A6B0EE96E03C0EAFF03
:10124000EFCF2CF0036A6C0EE96E03C0EAFFEFCF1C
:101250002DF0036A6D0EE96E03C0EAFFEFCF2EF0AA
:10126000036A6E0EE96E03C0EAFFEFCF2FF0036A48
:101270006F0EE96E03C0EAFFEFCF30F0036A700E25
:10128000E96E03C0EAFFEFCF31F0036A710EE96E39
:1012900003C0EAFFEFCF32F0036A720EE96E03C0BB
:1012A000EAFFEFCF33F073C034F074C035F075C08F
:1012B00036F0010E7D6F7F6B630E7E6F816B140EB7
:1012C000806F020E826FF4D559900A0E7E6F9CDDFE
:0412D000A6D603009B
:020000040030CA
:0E00000024CE3E1E008781000FC00FE00F408F
:00000001FF
;PIC18F2455
;CRC=D923  CREATED="29-jun.-16 18:35"
